:100000000C9483000C94B4000C94B4000C94B400D1
:100010000C94B4000C94B4000C94B4000C94B40090
:100020000C94B4000C94B4000C94B4000C94B40080
:100030000C94B4000C94B4000C94B4000C94B40070
:100040000C94B4000C94B4000C94B4000C94B40060
:100050000C94B4000C94B4000C94B4000C945303AE
:100060000C94B4000C94C7030C949D030C94B4003E
:100070000C94B4000C94B4000C94B4000C94B40030
:100080000C94B4000C94B4000C94B4000C94B40020
:100090000C94B4000C94B4000C94B4000C94B40010
:1000A0000C94B4000C94B4000C94B4000C94B40000
:1000B0000C94B4000C94B4000C94B4000C94B400F0
:1000C0000C94B4000C94B4000C94B4000C94B400E0
:1000D0000C94B4000C94B4000C94B4000C94B400D0
:1000E0000C94B4000C9488010C9442010C94F2001E
:1000F0000C943C050C9450010C941F010C94D501F8
:100100000C942E013C0511241FBECFEFD1E2DEBFBF
:10011000CDBF00E00CBF12E0A0E0B2E0E0EEFFE0F7
:1001200000E00BBF02C007900D92A635B107D9F7CA
:1001300022E0A6E5B2E001C01D92AC3FB207E1F7B4
:1001400010E0C3E8D0E000E006C021970109802F4D
:10015000FE010E94E607C238D10780E00807A9F730
:100160000E94FD030C94EE070C94000090917B001C
:10017000977F90937B008653806480937C0080916E
:100180007A00806480937A0080917A0086FDFCCFAB
:10019000809178009091790008953FB7F89480910C
:1001A0005B0290915C02A0915D02B0915E0226B567
:1001B000A89B05C02F3F19F00196A11DB11D3FBF9F
:1001C000BA2FA92F982F8827BC01CD01620F711D6E
:1001D000811D911D42E0660F771F881F991F4A9568
:1001E000D1F70895AF92BF92CF92DF92EF92FF9234
:1001F0000F931F93CF93DF936C017B018B01040F4F
:10020000151FEB015E01AE18BF08C017D10759F0EA
:100210006991D601ED91FC910190F081E02DC6012C
:100220001995892B79F7C501DF91CF911F910F9116
:10023000FF90EF90DF90CF90BF90AF900895FC01BA
:10024000538D448D252F30E0842F90E0821B930B3B
:10025000541710F0CF96089501970895FC01918DE1
:10026000828D981761F0A28DAE0FBF2FB11D5D96E4
:100270008C91928D9F5F9F73928F90E008958FEF86
:100280009FEF0895FC01918D828D981731F0828D3A
:10029000E80FF11D858D90E008958FEF9FEF089591
:1002A000FC01918D228D892F90E0805C9F4F821BF5
:1002B00091098F73992708958FE592E00E9450016C
:1002C00021E0892B09F420E0822F0895FC01A48D00
:1002D000A80FB92FB11DA35ABF4F2C91848D90E068
:1002E00001968F739927848FA689B7892C93A0894B
:1002F000B1898C91837080648C93938D848D9813D5
:1003000006C00288F389E02D80818F7D8083089567
:10031000EF92FF920F931F93CF93DF93EC0181E055
:10032000888F9B8D8C8D98131AC0E889F9898081FC
:1003300085FF15C09FB7F894EE89FF896083E8892F
:10034000F98980818370806480839FBF81E090E021
:10035000DF91CF911F910F91FF90EF900895F62EAE
:100360000B8D10E00F5F1F4F0F731127E02E8C8D48
:100370008E110CC00FB607FCFACFE889F98980818D
:1003800085FFF5CFCE010E946601F1CFEB8DEC0F1A
:10039000FD2FF11DE35AFF4FF0829FB7F8940B8FAA
:1003A000EA89FB8980818062CFCFCF93DF93EC0114
:1003B000888D8823B9F0AA89BB89E889F9898C914D
:1003C00085FD03C0808186FD0DC00FB607FCF7CF09
:1003D0008C9185FFF2CF808185FFEDCFCE010E9409
:1003E0006601E9CFDF91CF91089580E090E0892BFD
:1003F00029F00E945C0181110E94000080E090E0E1
:10040000892B49F080E090E0892B29F00E940000C0
:1004100081110E94000080E090E0892B49F080E08B
:1004200090E0892B29F00E94000081110E940000B9
:1004300080E090E0892B49F080E090E0892B29F062
:100440000E94000081110C9400000895FC010190AD
:100450000020E9F73197AF01481B590BBC018FE52C
:1004600092E00C94F2008F929F92AF92BF920F9302
:100470001F93CF93DF93CDB7DEB7A1970FB6F89454
:10048000DEBF0FBECDBF19A2423008F44AE08E0194
:100490000F5D1F4F842E912CB12CA12CA50194012E
:1004A0000E948805E62FB901CA01EA30F4F4E05D44
:1004B000D801EE938D01232B242B252B79F790E087
:1004C00080E0109719F0CD010E942602A1960FB688
:1004D000F894DEBF0FBECDBFDF91CF911F910F917A
:1004E000BF90AF909F908F900895E95CE1CF4F92BD
:1004F0005F926F927F928F929F92AF92BF92CF92B4
:10050000DF92EF92FF920F931F93CF936B017C01C9
:10051000742EAC019B010E94E107882399F082E1CF
:1005200092E0CF911F910F91FF90EF90DF90CF90CD
:10053000BF90AF909F908F907F906F905F904F9003
:100540000C94260246015701E894B7F82FEF3FEFCD
:100550004FE75FE7C501B4010E94E10781110DC0BB
:100560002FEF3FEF4FE75FE7C501B4010E94170689
:1005700018161CF486E192E0D4CF2FEF3FEF4FE73F
:100580005FE4C701B6010E946F0718161CF48AE1E8
:1005900092E0C7CF2FEF3FEF4FE75FECC701B60107
:1005A0000E94170687FDF3CF20E030E0A901C701C4
:1005B000B6010E94170610E000E087FF0AC06DE256
:1005C0008FE592E00E9488018C01F7FAF094F7F829
:1005D000F094C0E060E070E080E09FE37C1641F0C2
:1005E00020E030E040E251E40E941C06CF5FF6CFED
:1005F000A70196010E94AB052B013C010E948E06CB
:100600004B015C014AE00E9433027C01E00EF11EC6
:10061000CC23C1F1C501B4010E94BD069B01AC0110
:10062000C301B2010E94AA054B015C016EE28FE595
:1006300092E00E948801E80EF91EC15018F120E0F6
:1006400030E040E251E4C501B4010E9474072B017F
:100650003C010E948E064B01B12CA12C4AE0C50141
:10066000B4010E943302E80EF91EC501B4010E94D4
:10067000BD069B01AC01C301B2010E94AA054B015A
:100680005C01DBCFC701CF911F910F91FF90EF90DD
:10069000DF90CF90BF90AF909F908F907F906F90A2
:1006A0005F904F9008951F920F920FB60F921124F2
:1006B0002F933F938F939F93AF93BF938091570254
:1006C00090915802A0915902B0915A02309156026D
:1006D00023E0230F2D3758F50196A11DB11D20935E
:1006E00056028093570290935802A0935902B093F8
:1006F0005A0280915B0290915C02A0915D02B091E0
:100700005E020196A11DB11D80935B0290935C0275
:10071000A0935D02B0935E02BF91AF919F918F91C4
:100720003F912F910F900FBE0F901F90189526E8C4
:10073000230F0296A11DB11DD2CF1F920F920FB6AB
:100740000F9211240BB60F922F933F934F935F9309
:100750006F937F938F939F93AF93BF93EF93FF9389
:100760008FE592E00E946601FF91EF91BF91AF91FA
:100770009F918F917F916F915F914F913F912F91B9
:100780000F900BBE0F900FBE0F901F9018951F92E9
:100790000F920FB60F9211240BB60F922F938F93D7
:1007A0009F93EF93FF93E0916F02F091700280812D
:1007B000E0917502F091760282FD1DC090818091DA
:1007C00078028F5F8F7320917902821741F0E09158
:1007D0007802F0E0E15AFD4F958F80937802FF9107
:1007E000EF919F918F912F910F900BBE0F900FBEA5
:1007F0000F901F9018958081F2CF789484B5826015
:1008000084BD84B5816084BD85B5826085BD85B5B4
:10081000816085BD80916E00816080936E00109232
:1008200081008091810082608093810080918100AD
:10083000816080938100809180008160809380003E
:100840008091B10084608093B1008091B00081609C
:100850008093B0008091910082608093910080919C
:1008600091008160809391008091900081608093DD
:1008700090008091A10082608093A1008091A100EE
:1008800081608093A1008091A00081608093A0008E
:1008900080912101826080932101809121018160FA
:1008A00080932101809120018160809320018091BB
:1008B0007A00846080937A0080917A0082608093CD
:1008C0007A0080917A00816080937A0080917A002A
:1008D000806880937A001092C100E0916F02F091DD
:1008E000700282E08083E0916B02F0916C021082D2
:1008F000E0916D02F0916E028FEC8083109277028E
:10090000E0917302F091740286E08083E0917102BD
:10091000F0917202808180618083E0917102F09198
:100920007202808188608083E0917102F09172028E
:10093000808180688083E0917102F09172028081F1
:100940008F7D8083CC24CA9463E0D62EE12CF12CD9
:1009500086E30E94B6005C0187E30E94B6008C012A
:1009600088E30E94B600EC018EE192E00E9426022C
:10097000B501BB0C880B990B23E0660F771F881F0E
:10098000991F2A95D1F7A70196010E946905CA010E
:10099000B90164507109810991090E94BF0642E0C2
:1009A0000E9477028FE292E00E942602012E000C44
:1009B000220B330BC901B80133E0660F771F881F84
:1009C000991F3A95D1F7A70196010E946905CA01BE
:1009D000B90164507109810991090E94BF0642E082
:1009E0000E94770281E492E00E942602BE01DD0FA0
:1009F000880B990B43E0660F771F881F991F4A9554
:100A0000D1F7A70196010E946905CA01B901645096
:100A10007109810991090E94BF0642E00E94770294
:100A200083E592E00E9426020E94CD002B013C014A
:100A300054EF852E99249394A12CB12C0E94CD00C3
:100A40006419750986099709683E73408105910507
:100A5000A8F321E0821A9108A108B10888EE480E97
:100A600083E0581E611C711C81149104A104B1041F
:100A700029F70E94F5016CCFEFE5F2E013821282B4
:100A800088EE93E0A0E0B0E084839583A683B783EB
:100A900084E092E09183808385EC90E09587848761
:100AA00084EC90E09787868780EC90E0918B808B38
:100AB00081EC90E0938B828B82EC90E0958B848B21
:100AC00086EC90E0978B868B118E128E138E148E8F
:100AD0000895052E97FB1EF400940E94800557FD93
:100AE00007D00E94880507FC03D04EF40C948005C3
:100AF00050954095309521953F4F4F4F5F4F08954A
:100B000090958095709561957F4F8F4F9F4F089579
:100B1000A1E21A2EAA1BBB1BFD010DC0AA1FBB1F01
:100B2000EE1FFF1FA217B307E407F50720F0A21B73
:100B3000B30BE40BF50B661F771F881F991F1A94E0
:100B400069F760957095809590959B01AC01BD010A
:100B5000CF0108955058BB27AA270E94C2050C94C4
:100B600035070E94270738F00E942E0720F039F43D
:100B70009F3F19F426F40C9424070EF4E095E7FB4C
:100B80000C941E07E92F0E94460758F3BA17620714
:100B900073078407950720F079F4A6F50C9468078D
:100BA0000EF4E0950B2EBA2FA02D0B01B901900188
:100BB0000C01CA01A0011124FF27591B99F0593FCC
:100BC00050F4503E68F11A16F040A22F232F342F14
:100BD0004427585FF3CF469537952795A795F04062
:100BE0005395C9F77EF41F16BA0B620B730B840B77
:100BF000BAF09150A1F0FF0FBB1F661F771F881F2F
:100C0000C2F70EC0BA0F621F731F841F48F4879586
:100C100077956795B795F7959E3F08F0B0CF939578
:100C2000880F08F09927EE0F9795879508950E94F1
:100C3000FA0608F481E008950E9430060C94350706
:100C40000E942E0758F00E94270740F029F45F3FCA
:100C500029F00C941E0751110C9469070C94240779
:100C60000E94460768F39923B1F3552391F3951B2E
:100C7000550BBB27AA2762177307840738F09F5FBD
:100C80005F4F220F331F441FAA1FA9F335D00E2E2A
:100C90003AF0E0E832D091505040E695001CCAF797
:100CA0002BD0FE2F29D0660F771F881FBB1F26175A
:100CB00037074807AB07B0E809F0BB0B802DBF0131
:100CC000FF2793585F4F3AF09E3F510578F00C9400
:100CD0001E070C9469075F3FE4F3983ED4F38695B2
:100CE00077956795B795F7959F5FC9F7880F911D21
:100CF0009695879597F90895E1E0660F771F881F0D
:100D0000BB1F621773078407BA0720F0621B730BBF
:100D1000840BBA0BEE1F88F7E09508950E944E07EA
:100D200088F09F5798F0B92F9927B751B0F0E1F0AC
:100D3000660F771F881F991F1AF0BA95C9F714C05C
:100D4000B13091F00E946807B1E008950C946807F3
:100D5000672F782F8827B85F39F0B93FCCF3869595
:100D600077956795B395D9F73EF4909580957095F2
:100D700061957F4F8F4F9F4F0895E89409C097FB6F
:100D80003EF490958095709561957F4F8F4F9F4F62
:100D90009923A9F0F92F96E9BB279395F6958795A6
:100DA00077956795B795F111F8CFFAF4BB0F11F469
:100DB00060FF1BC06F5F7F4F8F4F9F4F16C0882310
:100DC00011F096E911C0772321F09EE8872F762F46
:100DD00005C0662371F096E8862F70E060E02AF087
:100DE0009A95660F771F881FDAF7880F9695879573
:100DF00097F90895990F0008550FAA0BE0E8FEEF48
:100E000016161706E807F907C0F012161306E407CE
:100E1000F50798F0621B730B840B950B39F40A26C7
:100E200061F0232B242B252B21F408950A2609F4A5
:100E3000A140A6958FEF811D811D089597F99F67A9
:100E400080E870E060E008959FEF80EC0895002452
:100E50000A941616170618060906089500240A941F
:100E600012161306140605060895092E0394000CA5
:100E700011F4882352F0BB0F40F4BF2B11F460FF34
:100E800004C06F5F7F4F8F4F9F4F089557FD90585D
:100E9000440F551F59F05F3F71F04795880F97FB3E
:100EA000991F61F09F3F79F08795089512161306F8
:100EB0001406551FF2CF4695F1DF08C01616170627
:100EC0001806991FF1CF869571056105089408955C
:100ED000E894BB2766277727CB0197F908950E94EE
:100EE000FA0608F48FEF08950E9487070C943507DF
:100EF0000E94270738F00E942E0720F0952311F05A
:100F00000C941E070C94240711240C9469070E946A
:100F1000460770F3959FC1F3950F50E0551F629FF0
:100F2000F001729FBB27F00DB11D639FAA27F00D42
:100F3000B11DAA1F649F6627B00DA11D661F829F69
:100F40002227B00DA11D621F739FB00DA11D621F4E
:100F5000839FA00D611D221F749F3327A00D611D6B
:100F6000231F849F600D211D822F762F6A2F11244D
:100F70009F5750409AF0F1F088234AF0EE0FFF1F80
:100F8000BB1F661F771F881F91505040A9F79E3FD7
:100F9000510580F00C941E070C9469075F3FE4F341
:100FA000983ED4F3869577956795B795F795E7952D
:100FB0009F5FC1F7FE2B880F911D9695879597F936
:100FC00008950E94FA06880B990B0895EE0FFF1FF3
:100FD000881F8BBF0790F691E02D1994F894FFCFEE
:100FE000000000008801F2001F01D50150012E0110
:100FF00042016E616E00696E66006F766600582071
:10100000446973706C6163656D656E743A200009A4
:101010005920446973706C6163656D656E743A2024
:1010200000095A20446973706C6163656D656E7464
:061030003A20000D0A0049
:00000001FF
